:10000000EEEF00F0EA6A230EE96EEF50D8B416EF77
:1000100000F0060E016E006A002EFED7012EFBD7FF
:100020007B0E006E002EFED7EF2EF3D7120021803C
:10003000226A2250090814E321B002D08C9001D02A
:100040008C8095909582000E83B2010E246E000E76
:1000500021B0010E245CD8A403D02170222AE9D754
:10006000225009080DE3956A8C68936A8A680A0E23
:10007000236EC8DF936A8A6A0A0E236EC3DFF3D742
:10008000000E016ED0EF00F066500BC066FF6430CA
:10009000FEE366500AC066FF6430FEE3665009C0A6
:1000A00066FF6430FEE3665008C066FF6430FEE31E
:1000B000959A8C8A959A8C9A000E016E1200665061
:1000C00010C066FF6430FEE3665011C066FF643006
:1000D000FEE3665012C066FF6430FEE3665013C054
:1000E00066FF6430FEE366500CC066FF6430FEE3DA
:1000F00066500DC066FF6430FEE366500EC066FFBA
:100100006430FEE366500FC066FF6430FEE3959EE8
:100110008C8E959E8C9E080E236E74DF000E016EF1
:10012000E5EF00F0216A2150070829E3036A215016
:10013000140FE96E000E0320EA6EEFCF8DFF966A72
:10014000800E226E2150016E04E0D8902232012EE2
:10015000FCD7665022C066FF6430FEE3929A898A1B
:10016000929A899A010E236E4DDF6650666A64305A
:10017000FEE3929A898A929A899A212AD4D7000E0C
:10018000016EE6EF00F0979E8E9E000E016EE7EF87
:1001900000F0979C8E9C000E016EE8EF00F047D7B0
:1001A000DF0E926E040E956E000E966E976E986E30
:1001B000FF0E946EF19E986A8F6A98908F800B6AFA
:1001C0000A6A096A086A60DF7AD7ACD7DCD7E1D758
:1001D000BD0EB16E000E016E14EF01F0F86AD09EF4
:1001E000639A000E646E200E636E9598958A959CB6
:1001F000C150C00B0F09C16E070EB46E0C680D68BC
:100200000E680F6810681168126813681468156822
:1002100016681768186819681A681B681C681D68D2
:100220001E6A1F6A206ABBD7081E091E2DDFC80E72
:08023000236EE8DEF9D703009C
:020000040030CA
:0E00000000C21E1EF385B100FFC0FFE0FF40EE
:00000001FF
;PIC18F6722
;CRC=9EDC  CREATED="10-May-26 09:28"
