:1000000025EF02F0EA6A260EE96EEF50D8B416EF3B
:1000100000F0060E016E006A002EFED7012EFBD7FF
:100020007B0E006E002EFED7EF2EF3D71200248039
:10003000256A2550090814E324B002D08C9001D021
:100040008C8095909582000E83B2010E276E000E73
:1000500024B0010E275CD8A403D02470252AE9D748
:10006000255009080DE3956A8C68936A8A680A0E20
:10007000266EC8DF936A8A6A0A0E266EC3DFF3D73C
:10008000000E016ED0EF00F066500BC066FF6430CA
:10009000FEE366500AC066FF6430FEE3665009C0A6
:1000A00066FF6430FEE3665008C066FF6430FEE31E
:1000B000959A8C8A959A8C9A000E016E1200665061
:1000C00010C066FF6430FEE3665011C066FF643006
:1000D000FEE3665012C066FF6430FEE3665013C054
:1000E00066FF6430FEE366500CC066FF6430FEE3DA
:1000F00066500DC066FF6430FEE366500EC066FFBA
:100100006430FEE366500FC066FF6430FEE3959EE8
:100110008C8E959E8C9E080E266E74DF000E016EEE
:10012000E5EF00F0246A2450070829E3036A24500D
:10013000140FE96E000E0320EA6EEFCF8DFF966A72
:10014000800E256E2450016E04E0D8902532012ED9
:10015000FCD7665025C066FF6430FEE3929A898A18
:10016000929A899A010E266E4DDF6650666A643057
:10017000FEE3929A898A929A899A242AD4D7000E09
:10018000016EE6EF00F0979E8E9E000E016EE7EF87
:1001900000F0979C8E9C000E016EE8EF00F047D7B0
:1001A000DF0E926E040E956E000E966E976E986E30
:1001B000FF0E946EF19E986A8F6A98908F800B6AFA
:1001C0000A6A096A086A60DF7AD7ACD7DCD7E1D758
:1001D000BD0EB16E000E016E4BEF02F0216A215090
:1001E00009080AE3081E091E0A1E0B1E4DDF640ED5
:1001F000266E08DF212AF3D71200216A2150010858
:100200003EE3226A2250200820E303680268016866
:1002100000682250246E07E0D8900036013602367E
:100220000336242EF9D70050086E081E0150096EBF
:10023000091E02500A6E0A1E03500B6E0B1E24DFAD
:10024000640E266EDFDE222ADDD7236A23502008C3
:1002500014E30B680A68096808682350246E07E0F5
:10026000D890083609360A360B36242EF9D70CDF1B
:10027000640E266EC7DE232AE9D7212ABFD74DEFA9
:1002800002F0216A215001083EE3226A2250200830
:1002900020E303680268016800682250246E07E0CA
:1002A000D8900332023201320032242EF9D70050A6
:1002B000086E081E0150096E091E02500A6E0A1EC1
:1002C00003500B6E0B1EE0DE640E266E9BDE222AB0
:1002D000DDD7236A2350200814E30B680A680968F5
:1002E00008682350246E07E0D8900B320A32093296
:1002F0000832242EF9D7C8DE640E266E83DE232A48
:10030000E9D7212ABFD74FEF02F0216A2150010817
:100310004AE3226A2250100826E30368026822504A
:10032000006E05E0D89002360336002EFBD702504F
:10033000FF0A0A6EFF0E03180B6E03680268225054
:10034000006E05E0D89003320232002EFBD7025037
:10035000FF0A086EFF0E0318096E96DE640E266E05
:1003600051DE222AD7D7226A225010081AE30B68DE
:100370000A682250006E05E0D8900A360B36002E2F
:10038000FBD7096808682250006E05E0D890093252
:100390000832002EFBD778DE640E266E33DE222A6A
:1003A000E3D7212AB3D751EF02F0216A2150010887
:1003B0004AE3216A2150100826E3036802682150AD
:1003C000006E05E0D89003320232002EFBD70250B7
:1003D000FF0A0A6EFF0E03180B6E036802682150B5
:1003E000006E05E0D89002360336002EFBD702508F
:1003F000FF0A086EFF0E0318096E46DE640E266EB5
:1004000001DE212AD7D7216A215010081AE30B6890
:100410000A682150006E05E0D8900B320A32002E97
:10042000FBD7096808682150006E05E0D8900836AF
:100430000936002EFBD728DE640E266EE3DD212A66
:10044000E3D7212AB3D753EF02F0F86AD09E639A1C
:10045000000E646E200E636E9598958A959CC1502F
:10046000C00B0F09C16E070EB46E0C680D680E68E4
:100470000F681068116812681368146815681668A8
:100480001768186819681A681B681C681D681E6A56
:100490001F6A206A84D6A2DEB0D6A0DEF2D69EDE27
:0804A00034D79CDE82D7030073
:020000040030CA
:0E00000000C21E1EF385B100FFC0FFE0FF40EE
:00000001FF
;PIC18F6722
;CRC=949E  CREATED="10-May-26 18:57"
