:10000000A0EF04F0EA6A2D0EE96EEF50D8B416EFB7
:1000100000F0060E016E006A002EFED7012EFBD7FF
:100020007B0E006E002EFED7EF2EF3D71200298034
:100030002A6A2A50090814E329B002D08C9001D012
:100040008C8095909582000E83B2010E2C6E000E6E
:1000500029B0010E2C5CD8A403D029702A2AE9D734
:100060002A5009080DE3956A8C68936A8A680A0E1B
:100070002D6EC8DF936A8A6A0A0E2D6EC3DFF3D72E
:10008000000E016ED0EF00F066500BC066FF6430CA
:10009000FEE366500AC066FF6430FEE3665009C0A6
:1000A00066FF6430FEE3665008C066FF6430FEE31E
:1000B000959A8C8A959A8C9A000E016E1200665061
:1000C00010C066FF6430FEE3665011C066FF643006
:1000D000FEE3665012C066FF6430FEE3665013C054
:1000E00066FF6430FEE366500CC066FF6430FEE3DA
:1000F00066500DC066FF6430FEE366500EC066FFBA
:100100006430FEE366500FC066FF6430FEE3959EE8
:100110008C8E959E8C9E080E2D6E74DF000E016EE7
:10012000E5EF00F0296A2950070829E3036A2950FE
:10013000140FE96E000E0320EA6EEFCF8DFF966A72
:10014000800E2A6E2950016E04E0D8902A32012ECA
:10015000FCD766502AC066FF6430FEE3929A898A13
:10016000929A899A010E2D6E4DDF6650666A643050
:10017000FEE3929A898A929A899A292AD4D7000E04
:10018000016EE6EF00F0979E8E9E000E016EE7EF87
:1001900000F0979C8E9C000E016EE8EF00F047D7B0
:1001A000DF0E926E040E956E000E966E976E986E30
:1001B000FF0E946EF19E986A8F6A98908F800B6AFA
:1001C0000A6A096A086A60DF7AD7ACD7DCD7E1D758
:1001D000BD0EB16E000E016ECBEF04F0216A295006
:1001E000215C0AE2081E091E0A1E0B1E4DDF640E6A
:1001F0002D6E08DF212AF3D712002B50070B006E5B
:100200002B30016E013201321F0E011601502D24D8
:10021000E96E000E2E20EA6E016A012A002A01D042
:100220000136002EFDD72C5203E00150EF1203D00F
:10023000011E0150EF1612002B50070B006E2B30E1
:10024000016E013201321F0E011601502C24E96E9D
:10025000000E2D20EA6EEFCF01F0002A01D001320E
:10026000002EFDD7010E01161200D8B203D0EA6AA3
:10027000370EE96E006A016A026A036A376A386AF1
:10028000396A3A6A36503510341033102CE0200E9B
:100290003B6ED8902F3630363136323637363836D8
:1002A00039363A3636503A5C08E13550395C05E16A
:1002B0003450385C02E13350375C0FE33350375E23
:1002C0003450D8A0343C385E3550D8A0353C395E27
:1002D0003650D8A0363C3A5ED88000360136023619
:1002E00003363B2ED6D737C0EFFF38C0ECFF39C0FE
:1002F000ECFF3AC0ECFF1200B250B3CF03F004267B
:10030000B3500522000E06220722B36A020EB26E17
:100310000000A1A204D0010E0626000E0722A19221
:10032000D89207C032F006C031F005C030F004C0EA
:100330002FF0366A356A020E346E710E336E95DF19
:1003400001C002F000C001F01200B250B3CF03F0C0
:100350000426B3500522000E06220722B36A020EBD
:10036000B26E0000A1A204D0010E0626000E0722E4
:10037000A192D89207C032F006C031F005C030F02B
:1003800004C02FF0366A356A020E346E710E336E79
:100390006CDF01C02EF000C02DF02C502E5C0FE35E
:1003A00003E12B502D5C0BE32B502D5C006E2C5089
:1003B0002E58036E00C001F0026E0FD00ED0FF0E5B
:1003C000D8802B542F6EFF0E2C54306E2D502F24BE
:1003D000016E2E503020036E026E120029C02BF0E9
:1003E000010E2C6E0F0E2E6E920E2D6E06DF20501B
:1003F000FC0FD8B0B7D0040FB5EF02F029C02BF036
:10040000010E2C6E0F0E2E6E920E2D6EF6DE29C092
:100410002BF00F0E2D6E800E2C6E0EDF01B00BD068
:100420002AC01DF029C01CF067DF02C01FF001C008
:100430001EF0010E206E96D01CC02BF0010E2C6E0B
:100440000F0E2E6E920E2D6ED8DE1CC02BF00F0EEE
:100450002D6E800E2C6EF0DE01A002D0206A1ED020
:100460001C50295C1BE11D502A5C18E11FC02CF0B8
:100470001EC02BF06ADF02C02CF001C02BF02C5202
:1004800003E12B5027080AE237DF02C01FF001C04A
:100490001EF0020E206E000E016E66D063D01CC0EE
:1004A0002BF0010E2C6E0F0E2E6E920E2D6EA5DE11
:1004B0001CC02BF00F0E2D6E800E2C6EBDDE01A029
:1004C00002D0206A1ED01C50295C1BE11D502A5C02
:1004D00018E11FC02CF01EC02BF037DF02C02CF03B
:1004E00001C02BF0025000080CE2FF0A03E12B5080
:1004F000F30807E201DF02C01FF001C01EF0030E87
:10050000206E30D01CC02BF0010E2C6E0F0E2E6E04
:10051000920E2D6E72DE1CC02BF00F0E2D6E800E13
:100520002C6E8ADE01A002D0206A1CD01C50295CEF
:1005300019E11D502A5C16E11FC02CF01EC02BF0E3
:1005400004DF02C02CF001C02BF02C5203E12B5031
:10055000630808E2D1DE02C01FF001C01EF0000EE9
:10056000016E02D0020E016E1200E824F76AF7361F
:100570008B0FF66E050EF722000EF86EFB6E0A006A
:10058000F550FA6E0800F550F96EFC0338049E042D
:1005900004057C0E2A6E0C0E296E20DF01521CE130
:1005A00024B01AD0036802682250006E05E0D8908B
:1005B00002360336002EFBD70250FF0A086EFF0EEC
:1005C0000318096E61DD640E2D6E1CDD222A225097
:1005D000100802E1100E226E7C0E2A6E0C0E296E9F
:1005E000FDDE015222E124A020D024B21ED0216AD7
:1005F000215010081AE3036802682150006E05E0DC
:10060000D89002360336002EFBD70250FF0A086E40
:10061000FF0E0318096E38DD640E2D6EF3DC2150D9
:10062000100801E12482212AE3D7DEEF04F07C0EDA
:100630002A6E0D0E296ED2DE01521DE122521BE000
:1006400024B019D0010E225E036802682250006EA9
:1006500005E0D89002360336002EFBD70250FF0A81
:10066000086EFF0E0318096E0FDD640E2D6ECADCD6
:10067000225201E1226A7C0E2A6E0D0E296EAEDE38
:1006800001521CE124A01AD024A218D0216A2150C2
:10069000100814E3096808682150006E05E0D8903E
:1006A00009320832002EFBD7EFDC640E2D6EAADC77
:1006B0002150100801E12492212AE9D7E2EF04F049
:1006C000216A2150100826E3036802682150006E59
:1006D00005E0D89002360336002EFBD70250FF0A01
:1006E0000A6EFF0E03180B6E036802682150006E3D
:1006F00005E0D89003320232002EFBD70250FF0AE9
:10070000086EFF0E0318096EBFDC640E2D6E7ADCD6
:10071000212AD7D7E6EF04F0216A2150100826E3FA
:10072000036802682150006E05E0D890033202325F
:10073000002EFBD70250FF0A0A6EFF0E03180B6E45
:10074000036802682150006E05E0D8900236033637
:10075000002EFBD70250FF0A086EFF0E0318096E29
:1007600093DC640E2D6E4EDC212AD7D7EAEF04F01D
:10077000216A215010084FE3036A2950080FE96EDF
:10078000000E0320EA6E00682150016E04E0D8904C
:100790000036012EFCD70050FF0AEF6E036A2A5084
:1007A000080FE96E000E0320EA6E00682150016E0A
:1007B00004E0D8900036012EFCD70050FF0AEF6EFF
:1007C000036A2B50080FE96E000E0320EA6E0068E2
:1007D0002150016E04E0D8900032012EFCD7005069
:1007E000FF0AEF6E036A2C50080FE96E000E03201B
:1007F000EA6E00682150016E04E0D8900032012EAC
:10080000FCD70050FF0AEF6E3FDC640E2D6E02EC49
:1008100000F0212AAED71200216A2150200845E3BA
:10082000236A200ED8802154235C3DE203680268CD
:10083000016800682150296E07E0D8900036013623
:1008400002360336292EF9D700502A6E2A1E01508F
:100850002B6E2B1E02502C6E2C1E03502D6E2D1E47
:10086000080E036E026A016A006A23502E6E07E0CA
:10087000D89003320232013200322E2EF9D70050C6
:100880002A10086E01502B10096E02502C100A6EAF
:1008900003502D100B6E44EC00F0640E2D6E02EC34
:1008A00000F0232ABED7212AB8D7216A2150200878
:1008B00045E3236A200ED8802154235C3DE203687F
:1008C0000268016800682150296E07E0D890033261
:1008D000023201320032292EF9D700502A6E2A1E28
:1008E00001502B6E2B1E02502C6E2C1E03502D6EB1
:1008F0002D1E036A026A016A010E006E23502E6EDD
:1009000007E0D89000360136023603362E2EF9D78E
:1009100000502A10086E01502B10096E02502C1046
:100920000A6E03502D100B6E44EC00F0640E2D6E19
:1009300002EC00F0232ABED7212AB8D708EF05F031
:10094000F86AD09E639A000E646E200E636E9598CE
:10095000958A959C216A226A236A24902492C15028
:10096000C00B0F09C16E070EB46E0C680D680E68DF
:100970000F681068116812681368146815681668A3
:100980001768186819681A681B681C681D681E6A51
:100990001F6A206A04D4256A010E266E020E276E95
:1009A000030E286E096A086A02D0000E01D0010EFB
:1009B00010082EE30A0E296E11DCEBD50A0E296E03
:1009C0000DDC35D60A0E296E09DC7AD60A0E296EA0
:1009D00005DCA2D60A0E296E01DC25C029F027C04D
:1009E0002AF026C02BF028C02CF0C2DE0A0E296E99
:1009F000EEEC00F026C029F028C02AF025C02BF02C
:100A000027C02CF0B5DE0A0E296EEEEC00F004D7FC
:040A1000CBD703003D
:020000040030CA
:0E00000000C21E1EF385B100FFC0FFE0FF40EE
:00000001FF
;PIC18F6722
;CRC=9F5C  CREATED="15-May-26 22:38"
