:1000000072EF01F0EA6A250EE96EEF50D8B416EFF0
:1000100000F0060E016E006A002EFED7012EFBD7FF
:100020007B0E006E002EFED7EF2EF3D7120023803A
:10003000246A2450090814E323B002D08C9001D024
:100040008C8095909582000E83B2010E266E000E74
:1000500023B0010E265CD8A403D02370242AE9D74C
:10006000245009080DE3956A8C68936A8A680A0E21
:10007000256EC8DF936A8A6A0A0E256EC3DFF3D73E
:10008000000E016ED0EF00F066500BC066FF6430CA
:10009000FEE366500AC066FF6430FEE3665009C0A6
:1000A00066FF6430FEE3665008C066FF6430FEE31E
:1000B000959A8C8A959A8C9A000E016E1200665061
:1000C00010C066FF6430FEE3665011C066FF643006
:1000D000FEE3665012C066FF6430FEE3665013C054
:1000E00066FF6430FEE366500CC066FF6430FEE3DA
:1000F00066500DC066FF6430FEE366500EC066FFBA
:100100006430FEE366500FC066FF6430FEE3959EE8
:100110008C8E959E8C9E080E256E74DF000E016EEF
:10012000E5EF00F0236A2350070829E3036A235010
:10013000140FE96E000E0320EA6EEFCF8DFF966A72
:10014000800E246E2350016E04E0D8902432012EDC
:10015000FCD7665024C066FF6430FEE3929A898A19
:10016000929A899A010E256E4DDF6650666A643058
:10017000FEE3929A898A929A899A232AD4D7000E0A
:10018000016EE6EF00F0979E8E9E000E016EE7EF87
:1001900000F0979C8E9C000E016EE8EF00F047D7B0
:1001A000DF0E926E040E956E000E966E976E986E30
:1001B000FF0E946EF19E986A8F6A98908F800B6AFA
:1001C0000A6A096A086A60DF7AD7ACD7DCD7E1D758
:1001D000BD0EB16E000E016E9AEF01F021502008A5
:1001E00020E303680268016800682150236E07E07D
:1001F000D8900036013602360336232EF9D7005048
:10020000086E081E0150096E091E02500A6E0A1E71
:1002100003500B6E0B1E38DF640E256EF3DE212AB1
:1002200002D0216A222A9DEF01F02150200814E318
:100230000B680A68096808682150236E07E0D890A7
:10024000083609360A360B36232EF9D71DDF640E21
:10025000256ED8DE212A02D0216A222AA1EF01F0E0
:100260002150200820E303680268016800682150DB
:10027000236E07E0D8900332023201320032232E7F
:10028000F9D70050086E081E0150096E091E025071
:100290000A6E0A1E03500B6E0B1EF6DE640E256EF0
:1002A000B1DE212A02D0216A222AA6EF01F02150D4
:1002B000200814E30B680A68096808682150236E57
:1002C00007E0D8900B320A3209320832232EF9D7D0
:1002D000DBDE640E256E96DE212A02D0216A222AF8
:1002E000ABEF01F0F86AD09E639A000E646E200EA8
:1002F000636E9598958A959C216A226AC150C00BBD
:100300000F09C16E070EB46E0C680D680E680F6899
:100310001068116812681368146815681668176801
:10032000186819681A681B681C681D681E6A1F6AAD
:10033000206A35D7225202E151D712D0222C02D0A6
:1003400074D70ED02250020802E18AD709D0225079
:10035000030802E1ACD704D02250040801E1226A6C
:04036000E9D70300D6
:020000040030CA
:0E00000000C21E1EF385B100FFC0FFE0FF40EE
:00000001FF
;PIC18F6722
;CRC=DCAD  CREATED="10-May-26 13:38"
