:100000000DEF03F0EA6A270EE96EEF50D8B416EF51
:1000100000F0060E016E006A002EFED7012EFBD7FF
:100020007B0E006E002EFED7EF2EF3D71200258038
:10003000266A2650090814E325B002D08C9001D01E
:100040008C8095909582000E83B2010E286E000E72
:1000500025B0010E285CD8A403D02570262AE9D744
:10006000265009080DE3956A8C68936A8A680A0E1F
:10007000276EC8DF936A8A6A0A0E276EC3DFF3D73A
:10008000000E016ED0EF00F066500BC066FF6430CA
:10009000FEE366500AC066FF6430FEE3665009C0A6
:1000A00066FF6430FEE3665008C066FF6430FEE31E
:1000B000959A8C8A959A8C9A000E016E1200665061
:1000C00010C066FF6430FEE3665011C066FF643006
:1000D000FEE3665012C066FF6430FEE3665013C054
:1000E00066FF6430FEE366500CC066FF6430FEE3DA
:1000F00066500DC066FF6430FEE366500EC066FFBA
:100100006430FEE366500FC066FF6430FEE3959EE8
:100110008C8E959E8C9E080E276E74DF000E016EED
:10012000E5EF00F0256A2550070829E3036A25500A
:10013000140FE96E000E0320EA6EEFCF8DFF966A72
:10014000800E266E2550016E04E0D8902632012ED6
:10015000FCD7665026C066FF6430FEE3929A898A17
:10016000929A899A010E276E4DDF6650666A643056
:10017000FEE3929A898A929A899A252AD4D7000E08
:10018000016EE6EF00F0979E8E9E000E016EE7EF87
:1001900000F0979C8E9C000E016EE8EF00F047D7B0
:1001A000DF0E926E040E956E000E966E976E986E30
:1001B000FF0E946EF19E986A8F6A98908F800B6AFA
:1001C0000A6A096A086A60DF7AD7ACD7DCD7E1D758
:1001D000BD0EB16E000E016E35EF03F02750070B18
:1001E000006E2730016E013201321F0E01160150E0
:1001F0002924E96E000E2A20EA6E016A012A002AEB
:1002000001D00136002EFDD7285203E00150EF1235
:1002100003D0011E0150EF1612002750070B006E8D
:100220002730016E013201321F0E011601502824C1
:10023000E96E000E2920EA6EEFCF01F0002A01D00E
:100240000132002EFDD7010E01161200D8B203D0E4
:10025000EA6A330EE96E006A016A026A036A336A67
:10026000346A356A366A3250311030102F102CE063
:10027000200E376ED8902B362C362D362E36333650
:100280003436353636363250365C08E13150355C1E
:1002900005E13050345C02E12F50335C0FE32F5006
:1002A000335E3050D8A0303C345E3150D8A0313C61
:1002B000355E3250D8A0323C365ED88000360136EA
:1002C00002360336372ED6D733C0EFFF34C0ECFFEB
:1002D00035C0ECFF36C0ECFF1200B250B3CF03F0D4
:1002E0000426B3500522000E06220722B36A020E2E
:1002F000B26E0000A1A204D0010E0626000E072255
:10030000A192D89207C02EF006C02DF005C02CF0A7
:1003100004C02BF0326A316A020E306E710E2F6EFD
:1003200095DF01C002F000C001F01200B250B3CF5F
:1003300003F00426B3500522000E06220722B36AFA
:10034000020EB26E0000A1A204D0010E0626000E1D
:100350000722A192D89207C02EF006C02DF005C04A
:100360002CF004C02BF0326A316A020E306E710E2E
:100370002F6E6CDF01C02AF000C029F028502A5CE3
:100380000FE303E12750295C0BE32750295C006E43
:1003900028502A58036E00C001F0026E0FD00ED014
:1003A000FF0ED88027542B6EFF0E28542C6E295038
:1003B0002B24016E2A502C20036E026E120025C0E1
:1003C00027F0010E286E0F0E2A6E920E296E06DFA0
:1003D0002050FC0FD8B0B7D0040FA6EF02F025C014
:1003E00027F0010E286E0F0E2A6E920E296EF6DE91
:1003F00025C027F00F0E296E800E286E0EDF01B08B
:100400000BD026C01DF025C01CF067DF02C01FF016
:1004100001C01EF0010E206E96D01CC027F0010E08
:10042000286E0F0E2A6E920E296ED8DE1CC027F0A1
:100430000F0E296E800E286EF0DE01A002D0206A19
:100440001ED01C50255C1BE11D50265C18E11FC00E
:1004500028F01EC027F06ADF02C028F001C027F094
:10046000285203E1275027080AE237DF02C01FF0B5
:1004700001C01EF0020E206E000E016E66D063D029
:100480001CC027F0010E286E0F0E2A6E920E296EE8
:10049000A5DE1CC027F00F0E296E800E286EBDDE73
:1004A00001A002D0206A1ED01C50255C1BE11D500B
:1004B000265C18E11FC028F01EC027F037DF02C0FD
:1004C00028F001C027F0025000080CE2FF0A03E107
:1004D0002750F30807E201DF02C01FF001C01EF041
:1004E000030E206E30D01CC027F0010E286E0F0EB8
:1004F0002A6E920E296E72DE1CC027F00F0E296E36
:10050000800E286E8ADE01A002D0206A1CD01C500A
:10051000255C19E11D50265C16E11FC028F01EC0A5
:1005200027F004DF02C028F001C027F0285203E1C1
:100530002750630808E2D1DE02C01FF001C01EF0A0
:10054000000E016E02D0020E016E1200E824F76A5E
:10055000F7366D0FF66E050EF722000EF86EFB6E85
:100560000A00F550FA6E0800F550F96EDE031A0421
:100570008004E6047C0E266E0C0E256E20DF0152F0
:100580001AE1036802682250006E05E0D890023636
:100590000336002EFBD70250FF0A086EFF0E031829
:1005A000096E72DD640E276E2DDD222A225010089E
:1005B00002E1100E226E40EF03F07C0E266E0D0E4F
:1005C000256EFDDE01521BE1225219E0010E225E72
:1005D000036802682250006E05E0D89002360336A8
:1005E000002EFBD70250FF0A086EFF0E0318096E9B
:1005F0004BDD640E276E06DD225201E1226A41EFD7
:1006000003F0938C81BC07D0096A086A3DDD640E53
:10061000276EF8DC226A42EF03F0F86AD09E639AF4
:10062000000E646E200E636E9598958A959C216AE3
:10063000226AC150C00B0F09C16E070EB46E0C6860
:100640000D680E680F6810681168126813681468E6
:10065000156816681768186819681A681B681C6896
:100660001D681E6A1F6A206A9AD5096A086A246A88
:10067000236A02D0000E01D0010E100803E37AD7DE
:080680009CD7BFD7F6D7030099
:020000040030CA
:0E00000000C21E1EF385B100FFC0FFE0FF40EE
:00000001FF
;PIC18F6722
;CRC=89A0  CREATED="10-May-26 18:38"
