:1000000023EF02F0EA6A260EE96EEF50D8B416EF3D
:1000100000F0060E016E006A002EFED7012EFBD7FF
:100020007B0E006E002EFED7EF2EF3D71200248039
:10003000256A2550090814E324B002D08C9001D021
:100040008C8095909582000E83B2010E276E000E73
:1000500024B0010E275CD8A403D02470252AE9D748
:10006000255009080DE3956A8C68936A8A680A0E20
:10007000266EC8DF936A8A6A0A0E266EC3DFF3D73C
:10008000000E016ED0EF00F066500BC066FF6430CA
:10009000FEE366500AC066FF6430FEE3665009C0A6
:1000A00066FF6430FEE3665008C066FF6430FEE31E
:1000B000959A8C8A959A8C9A000E016E1200665061
:1000C00010C066FF6430FEE3665011C066FF643006
:1000D000FEE3665012C066FF6430FEE3665013C054
:1000E00066FF6430FEE366500CC066FF6430FEE3DA
:1000F00066500DC066FF6430FEE366500EC066FFBA
:100100006430FEE366500FC066FF6430FEE3959EE8
:100110008C8E959E8C9E080E266E74DF000E016EEE
:10012000E5EF00F0246A2450070829E3036A24500D
:10013000140FE96E000E0320EA6EEFCF8DFF966A72
:10014000800E256E2450016E04E0D8902532012ED9
:10015000FCD7665025C066FF6430FEE3929A898A18
:10016000929A899A010E266E4DDF6650666A643057
:10017000FEE3929A898A929A899A242AD4D7000E09
:10018000016EE6EF00F0979E8E9E000E016EE7EF87
:1001900000F0979C8E9C000E016EE8EF00F047D7B0
:1001A000DF0E926E040E956E000E966E976E986E30
:1001B000FF0E946EF19E986A8F6A98908F800B6AFA
:1001C0000A6A096A086A60DF7AD7ACD7DCD7E1D758
:1001D000BD0EB16E000E016E4BEF02F0215009080A
:1001E00009E3081E091E0A1E0B1E4EDF640E266E52
:1001F00009DF02D0216A222A12002150200820E3C0
:1002000003680268016800682150246E07E0D890F6
:100210000036013602360336242EF9D70050086E18
:10022000081E0150096E091E02500A6E0A1E035074
:100230000B6E0B1E29DF640E266EE4DE212A02D02F
:10024000216A222A7AEF02F02150200814E30B6879
:100250000A68096808682150246E07E0D8900836BB
:1002600009360A360B36242EF9D70EDF640E266EB9
:10027000C9DE212A02D0216A222A7AEF02F0215017
:10028000200820E303680268016800682150246E9A
:1002900007E0D8900332023201320032242EF9D71F
:1002A0000050086E081E0150096E091E02500A6EA9
:1002B0000A1E03500B6E0B1EE7DE640E266EA2DED6
:1002C000212A02D0216A222A7AEF02F02150200846
:1002D00014E30B680A68096808682150246E07E077
:1002E000D8900B320A3209320832242EF9D7CCDEEC
:1002F000640E266E87DE212A02D0216A222A7AEF36
:1003000002F0216A215001084BE32350100826E334
:10031000036802682350006E05E0D8900236033669
:10032000002EFBD70250FF0A0A6EFF0E03180B6E59
:10033000036802682350006E05E0D8900332023251
:10034000002EFBD70250FF0A086EFF0E0318096E3D
:100350009BDE640E266E56DE232A01D0236A2350CC
:1003600010081AE30B680A682350006E05E0D89065
:100370000A360B36002EFBD7096808682350006E3A
:1003800005E0D89009320832002EFBD77DDE640EDE
:10039000266E38DE232A01D0236A212A222AB2D7E8
:1003A0007AEF02F0236A215001084BE32150100834
:1003B00026E3036802682150006E05E0D8900332FE
:1003C0000232002EFBD70250FF0A0A6EFF0E0318FE
:1003D0000B6E036802682150006E05E0D89002366B
:1003E0000336002EFBD70250FF0A086EFF0E0318DB
:1003F000096E4ADE640E266E05DE212A01D0216ACE
:10040000215010081AE30B680A682150006E05E0BD
:10041000D8900B320A32002EFBD7096808682150A9
:10042000006E05E0D89008360936002EFBD72CDE8A
:10043000640E266EE7DD212A01D0216A232A222AB2
:10044000B2D77AEF02F0F86AD09E639A000E646E1B
:10045000200E636E9598958A959C216A226AC150F8
:10046000C00B0F09C16E070EB46E0C680D680E68E4
:100470000F681068116812681368146815681668A8
:100480001768186819681A681B681C681D681E6A56
:100490001F6A206A84D6225202E1A0DE2BD0222CD1
:1004A00002D0ABD627D02250020802E1CDD622D00E
:1004B0002250030802E192DE1DD02250040802E11E
:1004C000DED618D02250050802E100D713D0225002
:1004D000060802E183DE0ED02250070802E111D7A0
:1004E00009D02250080802E179DE04D02250090820
:0804F000D8B458D7D0D703009F
:020000040030CA
:0E00000000C21E1EF385B100FFC0FFE0FF40EE
:00000001FF
;PIC18F6722
;CRC=D5CA  CREATED="10-May-26 19:39"
