:10000000BEEF02F0EA6A250EE96EEF50D8B416EFA3
:1000100000F0060E016E006A002EFED7012EFBD7FF
:100020007B0E006E002EFED7EF2EF3D7120023803A
:10003000246A2450090814E323B002D08C9001D024
:100040008C8095909582000E83B2010E266E000E74
:1000500023B0010E265CD8A403D02370242AE9D74C
:10006000245009080DE3956A8C68936A8A680A0E21
:10007000256EC8DF936A8A6A0A0E256EC3DFF3D73E
:10008000000E016ED0EF00F066500BC066FF6430CA
:10009000FEE366500AC066FF6430FEE3665009C0A6
:1000A00066FF6430FEE3665008C066FF6430FEE31E
:1000B000959A8C8A959A8C9A000E016E1200665061
:1000C00010C066FF6430FEE3665011C066FF643006
:1000D000FEE3665012C066FF6430FEE3665013C054
:1000E00066FF6430FEE366500CC066FF6430FEE3DA
:1000F00066500DC066FF6430FEE366500EC066FFBA
:100100006430FEE366500FC066FF6430FEE3959EE8
:100110008C8E959E8C9E080E256E74DF000E016EEF
:10012000E5EF00F0236A2350070829E3036A235010
:10013000140FE96E000E0320EA6EEFCF8DFF966A72
:10014000800E246E2350016E04E0D8902432012EDC
:10015000FCD7665024C066FF6430FEE3929A898A19
:10016000929A899A010E256E4DDF6650666A643058
:10017000FEE3929A898A929A899A232AD4D7000E0A
:10018000016EE6EF00F0979E8E9E000E016EE7EF87
:1001900000F0979C8E9C000E016EE8EF00F047D7B0
:1001A000DF0E926E040E956E000E966E976E986E30
:1001B000FF0E946EF19E986A8F6A98908F800B6AFA
:1001C0000A6A096A086A60DF7AD7ACD7DCD7E1D758
:1001D000BD0EB16E000E016EE6EF02F0086AE7EFA9
:1001E00002F02550070B006E2530016E01320132FE
:1001F0001F0E011601502724E96E000E2820EA6E1A
:10020000016A012A002A01D00136002EFDD72652AC
:1002100003E00150EF1203D0011E0150EF1612004F
:100220002550070B006E2530016E013201321F0E82
:10023000011601502624E96E000E2720EA6EEFCF4A
:1002400001F0002A01D00132002EFDD7010E011667
:100250001200D8B203D0EA6A310EE96E006A016A70
:10026000026A036A316A326A336A346A30502F1084
:100270002E102D102CE0200E356ED89029362A36FF
:100280002B362C3631363236333634363050345CF9
:1002900008E12F50335C05E12E50325C02E12D5015
:1002A000315C0FE32D50315E2E50D8A02E3C325ED3
:1002B0002F50D8A02F3C335E3050D8A0303C345E55
:1002C000D8800036013602360336352ED6D731C0F7
:1002D000EFFF32C0ECFF33C0ECFF34C0ECFF120084
:1002E000B250B3CF03F00426B3500522000E06220D
:1002F0000722B36A020EB26E0000A1A204D0010E62
:100300000626000E0722A192D89207C02CF006C044
:100310002BF005C02AF004C029F0306A2F6A020EC3
:100320002E6E710E2D6E95DF01C002F000C001F03F
:100330001200B250B3CF03F00426B3500522000ED2
:1003400006220722B36A020EB26E0000A1A204D0F8
:10035000010E0626000E0722A192D89207C02CF0AB
:1003600006C02BF005C02AF004C029F0306A2F6ABD
:10037000020E2E6E710E2D6E6CDF01C028F000C0D3
:1003800027F02650285C0FE303E12550275C0BE3A0
:100390002550275C006E26502858036E00C001F0DF
:1003A000026E0FD00ED0FF0ED8802554296EFF0E9E
:1003B00026542A6E27502924016E28502A20036EC5
:1003C000026E120023C025F0010E266E0F0E286E5D
:1003D000920E276E06DF2050FC0FD8B0B7D0040F66
:1003E000AAEF02F023C025F0010E266E0F0E286E34
:1003F000920E276EF6DE23C025F00F0E276E800EBC
:10040000266E0EDF01B00BD024C01DF023C01CF0FF
:1004100067DF02C01FF001C01EF0010E206E96D0F3
:100420001CC025F0010E266E0F0E286E920E276E50
:10043000D8DE1CC025F00F0E276E800E266EF0DE73
:1004400001A002D0206A1ED01C50235C1BE11D506D
:10045000245C18E11FC026F01EC025F06ADF02C030
:1004600026F001C025F0265203E1255027080AE2B4
:1004700037DF02C01FF001C01EF0020E206E000E1A
:10048000016E66D063D01CC025F0010E266E0F0EE3
:10049000286E920E276EA5DE1CC025F00F0E276E6B
:1004A000800E266EBDDE01A002D0206A1ED01C5038
:1004B000235C1BE11D50245C18E11FC026F01EC008
:1004C00025F037DF02C026F001C025F002500008F9
:1004D0000CE2FF0A03E12550F30807E201DF02C046
:1004E0001FF001C01EF0030E206E30D01CC025F09E
:1004F000010E266E0F0E286E920E276E72DE1CC045
:1005000025F00F0E276E800E266E8ADE01A002D027
:10051000206A1CD01C50235C19E11D50245C16E19C
:100520001FC026F01EC025F004DF02C026F001C067
:1005300025F0265203E12550630808E2D1DE02C00F
:100540001FF001C01EF0000E016E02D0020E016EFF
:10055000F5EF02F0E824F76AF736750FF66E050E30
:10056000F722000EF86EFB6E0A00F550FA6E0800D6
:10057000F550F96EE40320048604EC04F86AD09E7A
:10058000639A000E646E200E636E9598958A959C12
:10059000216A226AC150C00B0F09C16E070EB46EEA
:1005A0000C680D680E680F6810681168126813688F
:1005B0001468156816681768186819681A681B683F
:1005C0001C681D681E6A1F6A206AE9D507D69388D1
:1005D00081B802D00F0E086E938A81BA01D0086AE2
:1005E0007C0E246E0E0E236EEDD6015203E10852EE
:0A05F00001E0081E49DDEBD703000F
:020000040030CA
:0E00000000C21E1EF385B100FFC0FFE0FF40EE
:00000001FF
;PIC18F6722
;CRC=5B04  CREATED="10-May-26 14:01"
