:10000000EEEF00F0EA6A240EE96EEF50D8B416EF76
:1000100000F0060E016E006A002EFED7012EFBD7FF
:100020007B0E006E002EFED7EF2EF3D7120022803B
:10003000236A2350090814E322B002D08C9001D027
:100040008C8095909582000E83B2010E256E000E75
:1000500022B0010E255CD8A403D02270232AE9D750
:10006000235009080DE3956A8C68936A8A680A0E22
:10007000246EC8DF936A8A6A0A0E246EC3DFF3D740
:10008000000E016ED0EF00F066500BC066FF6430CA
:10009000FEE366500AC066FF6430FEE3665009C0A6
:1000A00066FF6430FEE3665008C066FF6430FEE31E
:1000B000959A8C8A959A8C9A000E016E1200665061
:1000C00010C066FF6430FEE3665011C066FF643006
:1000D000FEE3665012C066FF6430FEE3665013C054
:1000E00066FF6430FEE366500CC066FF6430FEE3DA
:1000F00066500DC066FF6430FEE366500EC066FFBA
:100100006430FEE366500FC066FF6430FEE3959EE8
:100110008C8E959E8C9E080E246E74DF000E016EF0
:10012000E5EF00F0226A2250070829E3036A225013
:10013000140FE96E000E0320EA6EEFCF8DFF966A72
:10014000800E236E2250016E04E0D8902332012EDF
:10015000FCD7665023C066FF6430FEE3929A898A1A
:10016000929A899A010E246E4DDF6650666A643059
:10017000FEE3929A898A929A899A222AD4D7000E0B
:10018000016EE6EF00F0979E8E9E000E016EE7EF87
:1001900000F0979C8E9C000E016EE8EF00F047D7B0
:1001A000DF0E926E040E956E000E966E976E986E30
:1001B000FF0E946EF19E986A8F6A98908F800B6AFA
:1001C0000A6A096A086A60DF7AD7ACD7DCD7E1D758
:1001D000BD0EB16E000E016E14EF01F0F86AD09EF4
:1001E000639A000E646E200E636E9598958A959CB6
:1001F000C150C00B0F09C16E070EB46E0C680D68BC
:100200000E680F6810681168126813681468156822
:1002100016681768186819681A681B681C681D68D2
:100220001E6A1F6A206ABBD7216A2150100821E389
:10023000036802682150006E05E0D8900332023254
:10024000002EFBD70250FF0A0A6EFF0E03180B6E3A
:10025000096A010E086E2150006E05E0D89008363C
:100260000936002EFBD710DFC80E246ECBDE212A04
:10027000DCD7216A2150100821E30368026821506D
:10028000006E05E0D89002360336002EFBD70250F0
:10029000FF0A0A6EFF0E03180B6E800E096E086AC5
:1002A0002150006E05E0D89009320832002EFBD7AD
:1002B000EBDEC80E246EA6DE212ADCD7B5D70300FC
:020000040030CA
:0E00000000C21E1EF385B100FFC0FFE0FF40EE
:00000001FF
;PIC18F6722
;CRC=1C26  CREATED="10-May-26 10:20"
