:100000008EEF03F0EA6A260EE96EEF50D8B416EFD1
:1000100000F0060E016E006A002EFED7012EFBD7FF
:100020007B0E006E002EFED7EF2EF3D71200248039
:10003000256A2550090814E324B002D08C9001D021
:100040008C8095909582000E83B2010E276E000E73
:1000500024B0010E275CD8A403D02470252AE9D748
:10006000255009080DE3956A8C68936A8A680A0E20
:10007000266EC8DF936A8A6A0A0E266EC3DFF3D73C
:10008000000E016ED0EF00F066500BC066FF6430CA
:10009000FEE366500AC066FF6430FEE3665009C0A6
:1000A00066FF6430FEE3665008C066FF6430FEE31E
:1000B000959A8C8A959A8C9A000E016E1200665061
:1000C00010C066FF6430FEE3665011C066FF643006
:1000D000FEE3665012C066FF6430FEE3665013C054
:1000E00066FF6430FEE366500CC066FF6430FEE3DA
:1000F00066500DC066FF6430FEE366500EC066FFBA
:100100006430FEE366500FC066FF6430FEE3959EE8
:100110008C8E959E8C9E080E266E74DF000E016EEE
:10012000E5EF00F0246A2450070829E3036A24500D
:10013000140FE96E000E0320EA6EEFCF8DFF966A72
:10014000800E256E2450016E04E0D8902532012ED9
:10015000FCD7665025C066FF6430FEE3929A898A18
:10016000929A899A010E266E4DDF6650666A643057
:10017000FEE3929A898A929A899A242AD4D7000E09
:10018000016EE6EF00F0979E8E9E000E016EE7EF87
:1001900000F0979C8E9C000E016EE8EF00F047D7B0
:1001A000DF0E926E040E956E000E966E976E986E30
:1001B000FF0E946EF19E986A8F6A98908F800B6AFA
:1001C0000A6A096A086A60DF7AD7ACD7DCD7E1D758
:1001D000BD0EB16E000E016EB8EF03F02650070B96
:1001E000006E2630016E013201321F0E01160150E1
:1001F0002824E96E000E2920EA6E016A012A002AED
:1002000001D00136002EFDD7275203E00150EF1236
:1002100003D0011E0150EF1612002650070B006E8E
:100220002630016E013201321F0E011601502724C3
:10023000E96E000E2820EA6EEFCF01F0002A01D00F
:100240000132002EFDD7010E01161200D8B203D0E4
:10025000EA6A320EE96E006A016A026A036A326A69
:10026000336A346A356A315030102F102E102CE06A
:10027000200E366ED8902A362B362C362D36323656
:100280003336343635363150355C08E13050345C25
:1002900005E12F50335C02E12E50325C0FE32E500B
:1002A000325E2F50D8A02F3C335E3050D8A0303C67
:1002B000345E3150D8A0313C355ED88000360136EE
:1002C00002360336362ED6D732C0EFFF33C0ECFFEE
:1002D00034C0ECFF35C0ECFF1200B250B3CF03F0D6
:1002E0000426B3500522000E06220722B36A020E2E
:1002F000B26E0000A1A204D0010E0626000E072255
:10030000A192D89207C02DF006C02CF005C02BF0AA
:1003100004C02AF0316A306A020E2F6E710E2E6E02
:1003200095DF01C002F000C001F01200B250B3CF5F
:1003300003F00426B3500522000E06220722B36AFA
:10034000020EB26E0000A1A204D0010E0626000E1D
:100350000722A192D89207C02DF006C02CF005C04C
:100360002BF004C02AF0316A306A020E2F6E710E33
:100370002E6E6CDF01C029F000C028F02750295CE8
:100380000FE303E12650285C0BE32650285C006E47
:1003900027502958036E00C001F0026E0FD00ED016
:1003A000FF0ED88026542A6EFF0E27542B6E28503D
:1003B0002A24016E29502B20036E026E120024C0E5
:1003C00026F0010E276E0F0E296E920E286E06DFA4
:1003D0002050FC0FD8B0B7D0040FA6EF02F024C015
:1003E00026F0010E276E0F0E296E920E286EF6DE95
:1003F00024C026F00F0E286E800E276E0EDF01B08F
:100400000BD025C01DF024C01CF067DF02C01FF018
:1004100001C01EF0010E206E96D01CC026F0010E09
:10042000276E0F0E296E920E286ED8DE1CC026F0A5
:100430000F0E286E800E276EF0DE01A002D0206A1B
:100440001ED01C50245C1BE11D50255C18E11FC010
:1004500027F01EC026F06ADF02C027F001C026F098
:10046000275203E1265027080AE237DF02C01FF0B7
:1004700001C01EF0020E206E000E016E66D063D029
:100480001CC026F0010E276E0F0E296E920E286EEC
:10049000A5DE1CC026F00F0E286E800E276EBDDE76
:1004A00001A002D0206A1ED01C50245C1BE11D500C
:1004B000255C18E11FC027F01EC026F037DF02C000
:1004C00027F001C026F0025000080CE2FF0A03E109
:1004D0002650F30807E201DF02C01FF001C01EF042
:1004E000030E206E30D01CC026F0010E276E0F0EBA
:1004F000296E920E286E72DE1CC026F00F0E286E3A
:10050000800E276E8ADE01A002D0206A1CD01C500B
:10051000245C19E11D50255C16E11FC027F01EC0A8
:1005200026F004DF02C027F001C026F0275203E1C5
:100530002650630808E2D1DE02C01FF001C01EF0A1
:10054000000E016E02D0020E016E1200E824F76A5E
:10055000F7366D0FF66E050EF722000EF86EFB6E85
:100560000A00F550FA6E0800F550F96EDE031A0421
:100570008004E6047C0E256E0C0E246E20DF0152F2
:100580001CE123B01AD0036802682250006E05E017
:10059000D89002360336002EFBD70250FF0A086EB1
:1005A000FF0E0318096E70DD640E266E2BDD222A05
:1005B0002250100802E1100E226E7C0E256E0C0EE9
:1005C000246EFDDE015222E123A020D023B21ED0F2
:1005D000216A215010081AE3036802682150006E56
:1005E00005E0D89002360336002EFBD70250FF0AF2
:1005F000086EFF0E0318096E47DD640E266E02DDDD
:100600002150100801E12382212AE3D7C1EF03F032
:100610007C0E256E0D0E246ED2DE01521DE122529B
:100620001BE023B019D0010E225E0368026822503D
:10063000006E05E0D89002360336002EFBD702503C
:10064000FF0A086EFF0E0318096E1EDD640E266E8B
:10065000D9DC225201E1226A7C0E256E0D0E246E39
:10066000AEDE01521CE123A01AD023A218D0216AC9
:100670002150100814E3096808682150006E05E055
:10068000D89009320832002EFBD7FEDC640E266EAD
:10069000B9DC2150100801E12392212AE9D7C2EFE9
:1006A00003F07C0E256E0E0E246E89DE015234E1BD
:1006B000096A086AE9DC226A2392040E246EFA0EA3
:1006C000266EA0DC242EFBD77C0E256E0E0E246E2B
:1006D00076DE015221E1237023A011D0216A21503E
:1006E00009080CE3081E091ECFDC020E246EFA0E68
:1006F000266E88DC242EFBD7212AF1D70DD009687D
:100700000868C2DC020E246E960E266E7BDC242E58
:10071000FBD7096A086AB8DCC3EF03F0F86AD09E19
:10072000639A000E646E200E636E9598958A959C70
:10073000216A226A23902392C150C00B0F09C16E17
:10074000070EB46E0C680D680E680F6810681168AB
:1007500012681368146815681668176818681968AD
:100760001A681B681C681D681E6A1F6A206A17D5F4
:10077000096A086A02D0000E01D0010E100803E3D6
:0A078000F9D646D78ED7F6D703004E
:020000040030CA
:0E00000000C21E1EF385B100FFC0FFE0FF40EE
:00000001FF
;PIC18F6722
;CRC=9183  CREATED="10-May-26 18:38"
